{
  "_format": "hh-sol-artifact-1",
  "contractName": "EscrowV2",
  "sourceName": "contracts/EscrowV2.sol",
  "abi": [
    {
      "inputs": [],
      "stateMutability": "nonpayable",
      "type": "constructor"
    },
    {
      "anonymous": false,
      "inputs": [
        {
          "indexed": false,
          "internalType": "address",
          "name": "sellerAddress",
          "type": "address"
        },
        {
          "indexed": false,
          "internalType": "address",
          "name": "arbitorAddress",
          "type": "address"
        },
        {
          "indexed": false,
          "internalType": "address",
          "name": "buyerAddress",
          "type": "address"
        },
        {
          "indexed": false,
          "internalType": "string",
          "name": "productId",
          "type": "string"
        }
      ],
      "name": "ApprovedByBuyer",
      "type": "event"
    },
    {
      "anonymous": false,
      "inputs": [
        {
          "indexed": false,
          "internalType": "address",
          "name": "sellerAddress",
          "type": "address"
        },
        {
          "indexed": false,
          "internalType": "address",
          "name": "arbitorAddress",
          "type": "address"
        },
        {
          "indexed": false,
          "internalType": "address",
          "name": "buyerAddress",
          "type": "address"
        },
        {
          "indexed": false,
          "internalType": "string",
          "name": "productId",
          "type": "string"
        },
        {
          "indexed": false,
          "internalType": "uint256",
          "name": "amount",
          "type": "uint256"
        }
      ],
      "name": "PaymentDeposited",
      "type": "event"
    },
    {
      "anonymous": false,
      "inputs": [
        {
          "indexed": false,
          "internalType": "address",
          "name": "sellerAddress",
          "type": "address"
        },
        {
          "indexed": false,
          "internalType": "address",
          "name": "arbitorAddress",
          "type": "address"
        },
        {
          "indexed": false,
          "internalType": "address",
          "name": "buyerAddress",
          "type": "address"
        },
        {
          "indexed": false,
          "internalType": "string",
          "name": "productId",
          "type": "string"
        },
        {
          "indexed": false,
          "internalType": "uint256",
          "name": "amount",
          "type": "uint256"
        }
      ],
      "name": "ProductAdded",
      "type": "event"
    },
    {
      "anonymous": false,
      "inputs": [
        {
          "indexed": false,
          "internalType": "address",
          "name": "sellerAddress",
          "type": "address"
        },
        {
          "indexed": false,
          "internalType": "address",
          "name": "arbitorAddress",
          "type": "address"
        },
        {
          "indexed": false,
          "internalType": "address",
          "name": "buyerAddress",
          "type": "address"
        },
        {
          "indexed": false,
          "internalType": "string",
          "name": "productId",
          "type": "string"
        }
      ],
      "name": "ProductReturned",
      "type": "event"
    },
    {
      "anonymous": false,
      "inputs": [
        {
          "indexed": false,
          "internalType": "address",
          "name": "sellerAddress",
          "type": "address"
        },
        {
          "indexed": false,
          "internalType": "address",
          "name": "arbitorAddress",
          "type": "address"
        },
        {
          "indexed": false,
          "internalType": "address",
          "name": "buyerAddress",
          "type": "address"
        },
        {
          "indexed": false,
          "internalType": "string",
          "name": "productId",
          "type": "string"
        }
      ],
      "name": "RejectedByBuyer",
      "type": "event"
    },
    {
      "inputs": [
        {
          "internalType": "address",
          "name": "sellerAddress",
          "type": "address"
        },
        {
          "internalType": "address",
          "name": "arbitorAddress",
          "type": "address"
        },
        {
          "internalType": "string",
          "name": "productId",
          "type": "string"
        },
        {
          "internalType": "uint256",
          "name": "amount",
          "type": "uint256"
        }
      ],
      "name": "addProduct",
      "outputs": [],
      "stateMutability": "nonpayable",
      "type": "function"
    },
    {
      "inputs": [
        {
          "internalType": "address",
          "name": "sellerAddress",
          "type": "address"
        },
        {
          "internalType": "string",
          "name": "productId",
          "type": "string"
        }
      ],
      "name": "approvedByBuyer",
      "outputs": [],
      "stateMutability": "nonpayable",
      "type": "function"
    },
    {
      "inputs": [
        {
          "internalType": "address",
          "name": "sellerAddress",
          "type": "address"
        },
        {
          "internalType": "string",
          "name": "productId",
          "type": "string"
        },
        {
          "internalType": "uint256",
          "name": "amount",
          "type": "uint256"
        }
      ],
      "name": "deposit",
      "outputs": [],
      "stateMutability": "nonpayable",
      "type": "function"
    },
    {
      "inputs": [
        {
          "internalType": "address",
          "name": "",
          "type": "address"
        },
        {
          "internalType": "string",
          "name": "",
          "type": "string"
        }
      ],
      "name": "escrowProducts",
      "outputs": [
        {
          "internalType": "string",
          "name": "productId",
          "type": "string"
        },
        {
          "internalType": "uint256",
          "name": "amount",
          "type": "uint256"
        },
        {
          "internalType": "enum EscrowV2.Status",
          "name": "status",
          "type": "uint8"
        },
        {
          "internalType": "address",
          "name": "buyerAddress",
          "type": "address"
        },
        {
          "internalType": "address",
          "name": "arbitorAddress",
          "type": "address"
        }
      ],
      "stateMutability": "view",
      "type": "function"
    },
    {
      "inputs": [
        {
          "internalType": "address",
          "name": "sellerAddress",
          "type": "address"
        },
        {
          "internalType": "string",
          "name": "productId",
          "type": "string"
        }
      ],
      "name": "getProduct",
      "outputs": [
        {
          "components": [
            {
              "internalType": "string",
              "name": "productId",
              "type": "string"
            },
            {
              "internalType": "uint256",
              "name": "amount",
              "type": "uint256"
            },
            {
              "internalType": "enum EscrowV2.Status",
              "name": "status",
              "type": "uint8"
            },
            {
              "internalType": "address",
              "name": "buyerAddress",
              "type": "address"
            },
            {
              "internalType": "address",
              "name": "arbitorAddress",
              "type": "address"
            }
          ],
          "internalType": "struct EscrowV2.Product",
          "name": "",
          "type": "tuple"
        }
      ],
      "stateMutability": "view",
      "type": "function"
    },
    {
      "inputs": [],
      "name": "name",
      "outputs": [
        {
          "internalType": "string",
          "name": "",
          "type": "string"
        }
      ],
      "stateMutability": "view",
      "type": "function"
    },
    {
      "inputs": [],
      "name": "owner",
      "outputs": [
        {
          "internalType": "address",
          "name": "",
          "type": "address"
        }
      ],
      "stateMutability": "view",
      "type": "function"
    },
    {
      "inputs": [
        {
          "internalType": "string",
          "name": "productId",
          "type": "string"
        }
      ],
      "name": "productReturned",
      "outputs": [],
      "stateMutability": "nonpayable",
      "type": "function"
    },
    {
      "inputs": [
        {
          "internalType": "address",
          "name": "sellerAddress",
          "type": "address"
        },
        {
          "internalType": "string",
          "name": "productId",
          "type": "string"
        }
      ],
      "name": "rejectedByBuyer",
      "outputs": [],
      "stateMutability": "nonpayable",
      "type": "function"
    }
  ],
  "bytecode": "0x60806040526040518060400160405280600881526020017f3336304465616c73000000000000000000000000000000000000000000000000815250600090816200004a91906200036f565b5073874069fa1eb16d44d622f2e0ca25eea172369bc1600260006101000a81548173ffffffffffffffffffffffffffffffffffffffff021916908373ffffffffffffffffffffffffffffffffffffffff160217905550348015620000ad57600080fd5b5033600160006101000a81548173ffffffffffffffffffffffffffffffffffffffff021916908373ffffffffffffffffffffffffffffffffffffffff16021790555062000456565b600081519050919050565b7f4e487b7100000000000000000000000000000000000000000000000000000000600052604160045260246000fd5b7f4e487b7100000000000000000000000000000000000000000000000000000000600052602260045260246000fd5b600060028204905060018216806200017757607f821691505b6020821081036200018d576200018c6200012f565b5b50919050565b60008190508160005260206000209050919050565b60006020601f8301049050919050565b600082821b905092915050565b600060088302620001f77fffffffffffffffffffffffffffffffffffffffffffffffffffffffffffffffff82620001b8565b620002038683620001b8565b95508019841693508086168417925050509392505050565b6000819050919050565b6000819050919050565b6000620002506200024a62000244846200021b565b62000225565b6200021b565b9050919050565b6000819050919050565b6200026c836200022f565b620002846200027b8262000257565b848454620001c5565b825550505050565b600090565b6200029b6200028c565b620002a881848462000261565b505050565b5b81811015620002d057620002c460008262000291565b600181019050620002ae565b5050565b601f8211156200031f57620002e98162000193565b620002f484620001a8565b8101602085101562000304578190505b6200031c6200031385620001a8565b830182620002ad565b50505b505050565b600082821c905092915050565b6000620003446000198460080262000324565b1980831691505092915050565b60006200035f838362000331565b9150826002028217905092915050565b6200037a82620000f5565b67ffffffffffffffff81111562000396576200039562000100565b5b620003a282546200015e565b620003af828285620002d4565b600060209050601f831160018114620003e75760008415620003d2578287015190505b620003de858262000351565b8655506200044e565b601f198416620003f78662000193565b60005b828110156200042157848901518255600182019150602085019450602081019050620003fa565b868310156200044157848901516200043d601f89168262000331565b8355505b6001600288020188555050505b505050505050565b61277d80620004666000396000f3fe608060405234801561001057600080fd5b50600436106100935760003560e01c8063464366731161006657806346436673146101225780636808587a1461013e5780638a9a5a801461015a5780638da5cb5b1461018a578063f3db9fe5146101a857610093565b806306fdde0314610098578063117d19a4146100b657806312429e58146100ea5780632b694cf914610106575b600080fd5b6100a06101c4565b6040516100ad9190611a2b565b60405180910390f35b6100d060048036038101906100cb9190611bf4565b610252565b6040516100e1959493929190611cef565b60405180910390f35b61010460048036038101906100ff9190611d49565b610380565b005b610120600480360381019061011b9190611dbe565b6107d2565b005b61013c60048036038101906101379190611bf4565b6109bf565b005b61015860048036038101906101539190611bf4565b610e7f565b005b610174600480360381019061016f9190611bf4565b611183565b6040516101819190611f2e565b60405180910390f35b61019261137c565b60405161019f9190611f50565b60405180910390f35b6101c260048036038101906101bd9190611f6b565b6113a2565b005b600080546101d190612009565b80601f01602080910402602001604051908101604052809291908181526020018280546101fd90612009565b801561024a5780601f1061021f5761010080835404028352916020019161024a565b820191906000526020600020905b81548152906001019060200180831161022d57829003601f168201915b505050505081565b6003602052816000526040600020818051602081018201805184825260208301602085012081835280955050505050506000915091505080600001805461029890612009565b80601f01602080910402602001604051908101604052809291908181526020018280546102c490612009565b80156103115780601f106102e657610100808354040283529160200191610311565b820191906000526020600020905b8154815290600101906020018083116102f457829003601f168201915b5050505050908060010154908060020160009054906101000a900460ff16908060020160019054906101000a900473ffffffffffffffffffffffffffffffffffffffff16908060030160009054906101000a900473ffffffffffffffffffffffffffffffffffffffff16905085565b6002600481111561039457610393611c69565b5b600360003373ffffffffffffffffffffffffffffffffffffffff1673ffffffffffffffffffffffffffffffffffffffff168152602001908152602001600020826040516103e19190612076565b908152602001604051809103902060020160009054906101000a900460ff16600481111561041257610411611c69565b5b14610452576040517f08c379a0000000000000000000000000000000000000000000000000000000008152600401610449906120d9565b60405180910390fd5b600260009054906101000a900473ffffffffffffffffffffffffffffffffffffffff1673ffffffffffffffffffffffffffffffffffffffff166323b872dd600360003373ffffffffffffffffffffffffffffffffffffffff1673ffffffffffffffffffffffffffffffffffffffff168152602001908152602001600020836040516104dd9190612076565b908152602001604051809103902060030160009054906101000a900473ffffffffffffffffffffffffffffffffffffffff1633600360003373ffffffffffffffffffffffffffffffffffffffff1673ffffffffffffffffffffffffffffffffffffffff1681526020019081526020016000208560405161055d9190612076565b9081526020016040518091039020600101546040518463ffffffff1660e01b815260040161058d939291906120f9565b6020604051808303816000875af11580156105ac573d6000803e3d6000fd5b505050506040513d601f19601f820116820180604052508101906105d09190612168565b61060f576040517f08c379a0000000000000000000000000000000000000000000000000000000008152600401610606906121e1565b60405180910390fd5b6004600360003373ffffffffffffffffffffffffffffffffffffffff1673ffffffffffffffffffffffffffffffffffffffff1681526020019081526020016000208260405161065e9190612076565b908152602001604051809103902060020160006101000a81548160ff0219169083600481111561069157610690611c69565b5b02179055507f290a344dc9f1026e563e182424c9e1948958e9bd6dd24f3d855255637a46b5a433600360003373ffffffffffffffffffffffffffffffffffffffff1673ffffffffffffffffffffffffffffffffffffffff168152602001908152602001600020836040516107059190612076565b908152602001604051809103902060030160009054906101000a900473ffffffffffffffffffffffffffffffffffffffff16600360003373ffffffffffffffffffffffffffffffffffffffff1673ffffffffffffffffffffffffffffffffffffffff168152602001908152602001600020846040516107849190612076565b908152602001604051809103902060020160019054906101000a900473ffffffffffffffffffffffffffffffffffffffff16846040516107c79493929190612201565b60405180910390a150565b60006040518060a00160405280848152602001838152602001600060048111156107ff576107fe611c69565b5b81526020013373ffffffffffffffffffffffffffffffffffffffff1681526020018573ffffffffffffffffffffffffffffffffffffffff16815250905080600360008773ffffffffffffffffffffffffffffffffffffffff1673ffffffffffffffffffffffffffffffffffffffff1681526020019081526020016000208460405161088a9190612076565b908152602001604051809103902060008201518160000190816108ad91906123f9565b506020820151816001015560408201518160020160006101000a81548160ff021916908360048111156108e3576108e2611c69565b5b021790555060608201518160020160016101000a81548173ffffffffffffffffffffffffffffffffffffffff021916908373ffffffffffffffffffffffffffffffffffffffff16021790555060808201518160030160006101000a81548173ffffffffffffffffffffffffffffffffffffffff021916908373ffffffffffffffffffffffffffffffffffffffff1602179055509050507f5b5be8f33d07440b9c724e574d3cbb083c9b1232f624354615b847de9b344acb85853386866040516109b09594939291906124cb565b60405180910390a15050505050565b3373ffffffffffffffffffffffffffffffffffffffff16600360008473ffffffffffffffffffffffffffffffffffffffff1673ffffffffffffffffffffffffffffffffffffffff16815260200190815260200160002082604051610a239190612076565b908152602001604051809103902060020160019054906101000a900473ffffffffffffffffffffffffffffffffffffffff1673ffffffffffffffffffffffffffffffffffffffff1614610aab576040517f08c379a0000000000000000000000000000000000000000000000000000000008152600401610aa290612597565b60405180910390fd5b60016004811115610abf57610abe611c69565b5b600360008473ffffffffffffffffffffffffffffffffffffffff1673ffffffffffffffffffffffffffffffffffffffff16815260200190815260200160002082604051610b0c9190612076565b908152602001604051809103902060020160009054906101000a900460ff166004811115610b3d57610b3c611c69565b5b14610b7d576040517f08c379a0000000000000000000000000000000000000000000000000000000008152600401610b7490612629565b60405180910390fd5b600260009054906101000a900473ffffffffffffffffffffffffffffffffffffffff1673ffffffffffffffffffffffffffffffffffffffff166323b872dd600360008573ffffffffffffffffffffffffffffffffffffffff1673ffffffffffffffffffffffffffffffffffffffff16815260200190815260200160002083604051610c089190612076565b908152602001604051809103902060030160009054906101000a900473ffffffffffffffffffffffffffffffffffffffff1684600360008773ffffffffffffffffffffffffffffffffffffffff1673ffffffffffffffffffffffffffffffffffffffff16815260200190815260200160002085604051610c889190612076565b9081526020016040518091039020600101546040518463ffffffff1660e01b8152600401610cb8939291906120f9565b6020604051808303816000875af1158015610cd7573d6000803e3d6000fd5b505050506040513d601f19601f82011682018060405250810190610cfb9190612168565b610d3a576040517f08c379a0000000000000000000000000000000000000000000000000000000008152600401610d31906121e1565b60405180910390fd5b60038060008473ffffffffffffffffffffffffffffffffffffffff1673ffffffffffffffffffffffffffffffffffffffff16815260200190815260200160002082604051610d889190612076565b908152602001604051809103902060020160006101000a81548160ff02191690836004811115610dbb57610dba611c69565b5b02179055507faa033d96474c71ed4ea5a8218d73d9998a0159e03db047538bb2ebb39eeb1c9082600360008573ffffffffffffffffffffffffffffffffffffffff1673ffffffffffffffffffffffffffffffffffffffff16815260200190815260200160002083604051610e2f9190612076565b908152602001604051809103902060030160009054906101000a900473ffffffffffffffffffffffffffffffffffffffff163384604051610e739493929190612201565b60405180910390a15050565b3373ffffffffffffffffffffffffffffffffffffffff16600360008473ffffffffffffffffffffffffffffffffffffffff1673ffffffffffffffffffffffffffffffffffffffff16815260200190815260200160002082604051610ee39190612076565b908152602001604051809103902060020160019054906101000a900473ffffffffffffffffffffffffffffffffffffffff1673ffffffffffffffffffffffffffffffffffffffff1614610f6b576040517f08c379a0000000000000000000000000000000000000000000000000000000008152600401610f6290612597565b60405180910390fd5b60016004811115610f7f57610f7e611c69565b5b600360008473ffffffffffffffffffffffffffffffffffffffff1673ffffffffffffffffffffffffffffffffffffffff16815260200190815260200160002082604051610fcc9190612076565b908152602001604051809103902060020160009054906101000a900460ff166004811115610ffd57610ffc611c69565b5b1461103d576040517f08c379a000000000000000000000000000000000000000000000000000000000815260040161103490612629565b60405180910390fd5b6002600360008473ffffffffffffffffffffffffffffffffffffffff1673ffffffffffffffffffffffffffffffffffffffff1681526020019081526020016000208260405161108c9190612076565b908152602001604051809103902060020160006101000a81548160ff021916908360048111156110bf576110be611c69565b5b02179055507fbcd452b68afbd7df9215869432f10e450cf787e090ccfa9dc9a7665c29dc714382600360008573ffffffffffffffffffffffffffffffffffffffff1673ffffffffffffffffffffffffffffffffffffffff168152602001908152602001600020836040516111339190612076565b908152602001604051809103902060030160009054906101000a900473ffffffffffffffffffffffffffffffffffffffff1633846040516111779493929190612201565b60405180910390a15050565b61118b61192e565b600360008473ffffffffffffffffffffffffffffffffffffffff1673ffffffffffffffffffffffffffffffffffffffff168152602001908152602001600020826040516111d89190612076565b90815260200160405180910390206040518060a001604052908160008201805461120190612009565b80601f016020809104026020016040519081016040528092919081815260200182805461122d90612009565b801561127a5780601f1061124f5761010080835404028352916020019161127a565b820191906000526020600020905b81548152906001019060200180831161125d57829003601f168201915b50505050508152602001600182015481526020016002820160009054906101000a900460ff1660048111156112b2576112b1611c69565b5b60048111156112c4576112c3611c69565b5b81526020016002820160019054906101000a900473ffffffffffffffffffffffffffffffffffffffff1673ffffffffffffffffffffffffffffffffffffffff1673ffffffffffffffffffffffffffffffffffffffff1681526020016003820160009054906101000a900473ffffffffffffffffffffffffffffffffffffffff1673ffffffffffffffffffffffffffffffffffffffff1673ffffffffffffffffffffffffffffffffffffffff1681525050905092915050565b600160009054906101000a900473ffffffffffffffffffffffffffffffffffffffff1681565b600060048111156113b6576113b5611c69565b5b600360008573ffffffffffffffffffffffffffffffffffffffff1673ffffffffffffffffffffffffffffffffffffffff168152602001908152602001600020836040516114039190612076565b908152602001604051809103902060020160009054906101000a900460ff16600481111561143457611433611c69565b5b1461143e57600080fd5b80600360008573ffffffffffffffffffffffffffffffffffffffff1673ffffffffffffffffffffffffffffffffffffffff1681526020019081526020016000208360405161148c9190612076565b908152602001604051809103902060010154146114de576040517f08c379a00000000000000000000000000000000000000000000000000000000081526004016114d5906126bb565b60405180910390fd5b3373ffffffffffffffffffffffffffffffffffffffff16600360008573ffffffffffffffffffffffffffffffffffffffff1673ffffffffffffffffffffffffffffffffffffffff168152602001908152602001600020836040516115429190612076565b908152602001604051809103902060020160019054906101000a900473ffffffffffffffffffffffffffffffffffffffff1673ffffffffffffffffffffffffffffffffffffffff16146115ca576040517f08c379a00000000000000000000000000000000000000000000000000000000081526004016115c190612727565b60405180910390fd5b6001600360008573ffffffffffffffffffffffffffffffffffffffff1673ffffffffffffffffffffffffffffffffffffffff168152602001908152602001600020836040516116199190612076565b908152602001604051809103902060020160006101000a81548160ff0219169083600481111561164c5761164b611c69565b5b0217905550600260009054906101000a900473ffffffffffffffffffffffffffffffffffffffff1673ffffffffffffffffffffffffffffffffffffffff166323b872dd33600360008773ffffffffffffffffffffffffffffffffffffffff1673ffffffffffffffffffffffffffffffffffffffff168152602001908152602001600020856040516116dd9190612076565b908152602001604051809103902060030160009054906101000a900473ffffffffffffffffffffffffffffffffffffffff16600360008873ffffffffffffffffffffffffffffffffffffffff1673ffffffffffffffffffffffffffffffffffffffff1681526020019081526020016000208660405161175c9190612076565b9081526020016040518091039020600101546040518463ffffffff1660e01b815260040161178c939291906120f9565b6020604051808303816000875af11580156117ab573d6000803e3d6000fd5b505050506040513d601f19601f820116820180604052508101906117cf9190612168565b61180e576040517f08c379a0000000000000000000000000000000000000000000000000000000008152600401611805906121e1565b60405180910390fd5b7f96fbac8c0ec1f0b8720f1985e90b1e4e3aeb3d7c8652f46bb9153ede76e1fa9583600360008673ffffffffffffffffffffffffffffffffffffffff1673ffffffffffffffffffffffffffffffffffffffff1681526020019081526020016000208460405161187d9190612076565b908152602001604051809103902060030160009054906101000a900473ffffffffffffffffffffffffffffffffffffffff163385600360008973ffffffffffffffffffffffffffffffffffffffff1673ffffffffffffffffffffffffffffffffffffffff168152602001908152602001600020876040516118fe9190612076565b9081526020016040518091039020600101546040516119219594939291906124cb565b60405180910390a1505050565b6040518060a0016040528060608152602001600081526020016000600481111561195b5761195a611c69565b5b8152602001600073ffffffffffffffffffffffffffffffffffffffff168152602001600073ffffffffffffffffffffffffffffffffffffffff1681525090565b600081519050919050565b600082825260208201905092915050565b60005b838110156119d55780820151818401526020810190506119ba565b60008484015250505050565b6000601f19601f8301169050919050565b60006119fd8261199b565b611a0781856119a6565b9350611a178185602086016119b7565b611a20816119e1565b840191505092915050565b60006020820190508181036000830152611a4581846119f2565b905092915050565b6000604051905090565b600080fd5b600080fd5b600073ffffffffffffffffffffffffffffffffffffffff82169050919050565b6000611a8c82611a61565b9050919050565b611a9c81611a81565b8114611aa757600080fd5b50565b600081359050611ab981611a93565b92915050565b600080fd5b600080fd5b7f4e487b7100000000000000000000000000000000000000000000000000000000600052604160045260246000fd5b611b01826119e1565b810181811067ffffffffffffffff82111715611b2057611b1f611ac9565b5b80604052505050565b6000611b33611a4d565b9050611b3f8282611af8565b919050565b600067ffffffffffffffff821115611b5f57611b5e611ac9565b5b611b68826119e1565b9050602081019050919050565b82818337600083830152505050565b6000611b97611b9284611b44565b611b29565b905082815260208101848484011115611bb357611bb2611ac4565b5b611bbe848285611b75565b509392505050565b600082601f830112611bdb57611bda611abf565b5b8135611beb848260208601611b84565b91505092915050565b60008060408385031215611c0b57611c0a611a57565b5b6000611c1985828601611aaa565b925050602083013567ffffffffffffffff811115611c3a57611c39611a5c565b5b611c4685828601611bc6565b9150509250929050565b6000819050919050565b611c6381611c50565b82525050565b7f4e487b7100000000000000000000000000000000000000000000000000000000600052602160045260246000fd5b60058110611ca957611ca8611c69565b5b50565b6000819050611cba82611c98565b919050565b6000611cca82611cac565b9050919050565b611cda81611cbf565b82525050565b611ce981611a81565b82525050565b600060a0820190508181036000830152611d0981886119f2565b9050611d186020830187611c5a565b611d256040830186611cd1565b611d326060830185611ce0565b611d3f6080830184611ce0565b9695505050505050565b600060208284031215611d5f57611d5e611a57565b5b600082013567ffffffffffffffff811115611d7d57611d7c611a5c565b5b611d8984828501611bc6565b91505092915050565b611d9b81611c50565b8114611da657600080fd5b50565b600081359050611db881611d92565b92915050565b60008060008060808587031215611dd857611dd7611a57565b5b6000611de687828801611aaa565b9450506020611df787828801611aaa565b935050604085013567ffffffffffffffff811115611e1857611e17611a5c565b5b611e2487828801611bc6565b9250506060611e3587828801611da9565b91505092959194509250565b600082825260208201905092915050565b6000611e5d8261199b565b611e678185611e41565b9350611e778185602086016119b7565b611e80816119e1565b840191505092915050565b611e9481611c50565b82525050565b611ea381611cbf565b82525050565b611eb281611a81565b82525050565b600060a0830160008301518482036000860152611ed58282611e52565b9150506020830151611eea6020860182611e8b565b506040830151611efd6040860182611e9a565b506060830151611f106060860182611ea9565b506080830151611f236080860182611ea9565b508091505092915050565b60006020820190508181036000830152611f488184611eb8565b905092915050565b6000602082019050611f656000830184611ce0565b92915050565b600080600060608486031215611f8457611f83611a57565b5b6000611f9286828701611aaa565b935050602084013567ffffffffffffffff811115611fb357611fb2611a5c565b5b611fbf86828701611bc6565b9250506040611fd086828701611da9565b9150509250925092565b7f4e487b7100000000000000000000000000000000000000000000000000000000600052602260045260246000fd5b6000600282049050600182168061202157607f821691505b60208210810361203457612033611fda565b5b50919050565b600081905092915050565b60006120508261199b565b61205a818561203a565b935061206a8185602086016119b7565b80840191505092915050565b60006120828284612045565b915081905092915050565b7f50726f64756374206d7573742062652072656a65637465640000000000000000600082015250565b60006120c36018836119a6565b91506120ce8261208d565b602082019050919050565b600060208201905081810360008301526120f2816120b6565b9050919050565b600060608201905061210e6000830186611ce0565b61211b6020830185611ce0565b6121286040830184611c5a565b949350505050565b60008115159050919050565b61214581612130565b811461215057600080fd5b50565b6000815190506121628161213c565b92915050565b60006020828403121561217e5761217d611a57565b5b600061218c84828501612153565b91505092915050565b7f5472616e73666572206661696c65640000000000000000000000000000000000600082015250565b60006121cb600f836119a6565b91506121d682612195565b602082019050919050565b600060208201905081810360008301526121fa816121be565b9050919050565b60006080820190506122166000830187611ce0565b6122236020830186611ce0565b6122306040830185611ce0565b818103606083015261224281846119f2565b905095945050505050565b60008190508160005260206000209050919050565b60006020601f8301049050919050565b600082821b905092915050565b6000600883026122af7fffffffffffffffffffffffffffffffffffffffffffffffffffffffffffffffff82612272565b6122b98683612272565b95508019841693508086168417925050509392505050565b6000819050919050565b60006122f66122f16122ec84611c50565b6122d1565b611c50565b9050919050565b6000819050919050565b612310836122db565b61232461231c826122fd565b84845461227f565b825550505050565b600090565b61233961232c565b612344818484612307565b505050565b5b818110156123685761235d600082612331565b60018101905061234a565b5050565b601f8211156123ad5761237e8161224d565b61238784612262565b81016020851015612396578190505b6123aa6123a285612262565b830182612349565b50505b505050565b600082821c905092915050565b60006123d0600019846008026123b2565b1980831691505092915050565b60006123e983836123bf565b9150826002028217905092915050565b6124028261199b565b67ffffffffffffffff81111561241b5761241a611ac9565b5b6124258254612009565b61243082828561236c565b600060209050601f8311600181146124635760008415612451578287015190505b61245b85826123dd565b8655506124c3565b601f1984166124718661224d565b60005b8281101561249957848901518255600182019150602085019450602081019050612474565b868310156124b657848901516124b2601f8916826123bf565b8355505b6001600288020188555050505b505050505050565b600060a0820190506124e06000830188611ce0565b6124ed6020830187611ce0565b6124fa6040830186611ce0565b818103606083015261250c81856119f2565b905061251b6080830184611c5a565b9695505050505050565b7f4f6e6c79207468652062757965722063616e2063616c6c20746869732066756e60008201527f6374696f6e000000000000000000000000000000000000000000000000000000602082015250565b60006125816025836119a6565b915061258c82612525565b604082019050919050565b600060208201905081810360008301526125b081612574565b9050919050565b7f4f6e6c792070726f64756374206177616974696e672064656c6976657279206360008201527f616e20626520617070726f766564000000000000000000000000000000000000602082015250565b6000612613602e836119a6565b915061261e826125b7565b604082019050919050565b6000602082019050818103600083015261264281612606565b9050919050565b7f4465706f73697420616d6f756e74206d75737420626520657175616c20746f2060008201527f70726f6475637420616d6f756e74000000000000000000000000000000000000602082015250565b60006126a5602e836119a6565b91506126b082612649565b604082019050919050565b600060208201905081810360008301526126d481612698565b9050919050565b7f4f6e6c79207468652062757965722063616e206465706f7369742066756e6473600082015250565b60006127116020836119a6565b915061271c826126db565b602082019050919050565b6000602082019050818103600083015261274081612704565b905091905056fea26469706673582212202200e8a32f43abc4b6d92dbf240ee3898d4ae42eb4820417e80a98614a2cc3e764736f6c63430008180033",
  "linkReferences": {},
  "deployedLinkReferences": {}
}