{
  "_format": "hh-sol-artifact-1",
  "contractName": "Escrow",
  "sourceName": "contracts/Escrow.sol",
  "abi": [
    {
      "inputs": [],
      "stateMutability": "nonpayable",
      "type": "constructor"
    },
    {
      "anonymous": false,
      "inputs": [
        {
          "indexed": false,
          "internalType": "address",
          "name": "sellerAddress",
          "type": "address"
        },
        {
          "indexed": false,
          "internalType": "address",
          "name": "arbitorAddress",
          "type": "address"
        },
        {
          "indexed": false,
          "internalType": "address",
          "name": "buyerAddress",
          "type": "address"
        },
        {
          "indexed": false,
          "internalType": "string",
          "name": "productId",
          "type": "string"
        }
      ],
      "name": "ApprovedByBuyer",
      "type": "event"
    },
    {
      "anonymous": false,
      "inputs": [
        {
          "indexed": false,
          "internalType": "address",
          "name": "sellerAddress",
          "type": "address"
        },
        {
          "indexed": false,
          "internalType": "address",
          "name": "arbitorAddress",
          "type": "address"
        },
        {
          "indexed": false,
          "internalType": "address",
          "name": "buyerAddress",
          "type": "address"
        },
        {
          "indexed": false,
          "internalType": "string",
          "name": "productId",
          "type": "string"
        },
        {
          "indexed": false,
          "internalType": "uint256",
          "name": "amount",
          "type": "uint256"
        }
      ],
      "name": "PaymentDeposited",
      "type": "event"
    },
    {
      "anonymous": false,
      "inputs": [
        {
          "indexed": false,
          "internalType": "address",
          "name": "sellerAddress",
          "type": "address"
        },
        {
          "indexed": false,
          "internalType": "address",
          "name": "arbitorAddress",
          "type": "address"
        },
        {
          "indexed": false,
          "internalType": "address",
          "name": "buyerAddress",
          "type": "address"
        },
        {
          "indexed": false,
          "internalType": "string",
          "name": "productId",
          "type": "string"
        },
        {
          "indexed": false,
          "internalType": "uint256",
          "name": "amount",
          "type": "uint256"
        }
      ],
      "name": "ProductAdded",
      "type": "event"
    },
    {
      "anonymous": false,
      "inputs": [
        {
          "indexed": false,
          "internalType": "address",
          "name": "sellerAddress",
          "type": "address"
        },
        {
          "indexed": false,
          "internalType": "address",
          "name": "arbitorAddress",
          "type": "address"
        },
        {
          "indexed": false,
          "internalType": "address",
          "name": "buyerAddress",
          "type": "address"
        },
        {
          "indexed": false,
          "internalType": "string",
          "name": "productId",
          "type": "string"
        }
      ],
      "name": "ProductReturned",
      "type": "event"
    },
    {
      "anonymous": false,
      "inputs": [
        {
          "indexed": false,
          "internalType": "address",
          "name": "sellerAddress",
          "type": "address"
        },
        {
          "indexed": false,
          "internalType": "address",
          "name": "arbitorAddress",
          "type": "address"
        },
        {
          "indexed": false,
          "internalType": "address",
          "name": "buyerAddress",
          "type": "address"
        },
        {
          "indexed": false,
          "internalType": "string",
          "name": "productId",
          "type": "string"
        }
      ],
      "name": "RejectedByBuyer",
      "type": "event"
    },
    {
      "inputs": [
        {
          "internalType": "address",
          "name": "sellerAddress",
          "type": "address"
        },
        {
          "internalType": "address",
          "name": "arbitorAddress",
          "type": "address"
        },
        {
          "internalType": "string",
          "name": "productId",
          "type": "string"
        },
        {
          "internalType": "uint256",
          "name": "amount",
          "type": "uint256"
        }
      ],
      "name": "addProduct",
      "outputs": [],
      "stateMutability": "nonpayable",
      "type": "function"
    },
    {
      "inputs": [
        {
          "internalType": "address",
          "name": "sellerAddress",
          "type": "address"
        },
        {
          "internalType": "string",
          "name": "productId",
          "type": "string"
        }
      ],
      "name": "approveByBuyer",
      "outputs": [],
      "stateMutability": "nonpayable",
      "type": "function"
    },
    {
      "inputs": [
        {
          "internalType": "address",
          "name": "sellerAddress",
          "type": "address"
        },
        {
          "internalType": "string",
          "name": "productId",
          "type": "string"
        },
        {
          "internalType": "uint256",
          "name": "amount",
          "type": "uint256"
        }
      ],
      "name": "deposit",
      "outputs": [],
      "stateMutability": "nonpayable",
      "type": "function"
    },
    {
      "inputs": [
        {
          "internalType": "address",
          "name": "",
          "type": "address"
        },
        {
          "internalType": "string",
          "name": "",
          "type": "string"
        }
      ],
      "name": "escrowProducts",
      "outputs": [
        {
          "internalType": "string",
          "name": "productId",
          "type": "string"
        },
        {
          "internalType": "uint256",
          "name": "amount",
          "type": "uint256"
        },
        {
          "internalType": "enum Escrow.Status",
          "name": "status",
          "type": "uint8"
        },
        {
          "internalType": "address",
          "name": "buyerAddress",
          "type": "address"
        },
        {
          "internalType": "address",
          "name": "arbitorAddress",
          "type": "address"
        }
      ],
      "stateMutability": "view",
      "type": "function"
    },
    {
      "inputs": [
        {
          "internalType": "address",
          "name": "sellerAddress",
          "type": "address"
        },
        {
          "internalType": "string",
          "name": "productId",
          "type": "string"
        }
      ],
      "name": "getProduct",
      "outputs": [
        {
          "components": [
            {
              "internalType": "string",
              "name": "productId",
              "type": "string"
            },
            {
              "internalType": "uint256",
              "name": "amount",
              "type": "uint256"
            },
            {
              "internalType": "enum Escrow.Status",
              "name": "status",
              "type": "uint8"
            },
            {
              "internalType": "address",
              "name": "buyerAddress",
              "type": "address"
            },
            {
              "internalType": "address",
              "name": "arbitorAddress",
              "type": "address"
            }
          ],
          "internalType": "struct Escrow.Product",
          "name": "",
          "type": "tuple"
        }
      ],
      "stateMutability": "view",
      "type": "function"
    },
    {
      "inputs": [],
      "name": "name",
      "outputs": [
        {
          "internalType": "string",
          "name": "",
          "type": "string"
        }
      ],
      "stateMutability": "view",
      "type": "function"
    },
    {
      "inputs": [],
      "name": "owner",
      "outputs": [
        {
          "internalType": "address",
          "name": "",
          "type": "address"
        }
      ],
      "stateMutability": "view",
      "type": "function"
    },
    {
      "inputs": [
        {
          "internalType": "string",
          "name": "productId",
          "type": "string"
        }
      ],
      "name": "productReturned",
      "outputs": [],
      "stateMutability": "nonpayable",
      "type": "function"
    },
    {
      "inputs": [
        {
          "internalType": "address",
          "name": "sellerAddress",
          "type": "address"
        },
        {
          "internalType": "string",
          "name": "productId",
          "type": "string"
        }
      ],
      "name": "rejectedByBuyer",
      "outputs": [],
      "stateMutability": "nonpayable",
      "type": "function"
    }
  ],
  "bytecode": "0x60806040526040518060400160405280600881526020017f3336304465616c73000000000000000000000000000000000000000000000000815250600090816200004a91906200031a565b503480156200005857600080fd5b5033600160006101000a81548173ffffffffffffffffffffffffffffffffffffffff021916908373ffffffffffffffffffffffffffffffffffffffff16021790555062000401565b600081519050919050565b7f4e487b7100000000000000000000000000000000000000000000000000000000600052604160045260246000fd5b7f4e487b7100000000000000000000000000000000000000000000000000000000600052602260045260246000fd5b600060028204905060018216806200012257607f821691505b602082108103620001385762000137620000da565b5b50919050565b60008190508160005260206000209050919050565b60006020601f8301049050919050565b600082821b905092915050565b600060088302620001a27fffffffffffffffffffffffffffffffffffffffffffffffffffffffffffffffff8262000163565b620001ae868362000163565b95508019841693508086168417925050509392505050565b6000819050919050565b6000819050919050565b6000620001fb620001f5620001ef84620001c6565b620001d0565b620001c6565b9050919050565b6000819050919050565b6200021783620001da565b6200022f620002268262000202565b84845462000170565b825550505050565b600090565b6200024662000237565b620002538184846200020c565b505050565b5b818110156200027b576200026f6000826200023c565b60018101905062000259565b5050565b601f821115620002ca5762000294816200013e565b6200029f8462000153565b81016020851015620002af578190505b620002c7620002be8562000153565b83018262000258565b50505b505050565b600082821c905092915050565b6000620002ef60001984600802620002cf565b1980831691505092915050565b60006200030a8383620002dc565b9150826002028217905092915050565b6200032582620000a0565b67ffffffffffffffff811115620003415762000340620000ab565b5b6200034d825462000109565b6200035a8282856200027f565b600060209050601f8311600181146200039257600084156200037d578287015190505b620003898582620002fc565b865550620003f9565b601f198416620003a2866200013e565b60005b82811015620003cc57848901518255600182019150602085019450602081019050620003a5565b86831015620003ec5784890151620003e8601f891682620002dc565b8355505b6001600288020188555050505b505050505050565b61217580620004116000396000f3fe608060405234801561001057600080fd5b50600436106100935760003560e01c806339dc92181161006657806339dc9218146101225780636808587a1461013e5780638a9a5a801461015a5780638da5cb5b1461018a578063f3db9fe5146101a857610093565b806306fdde0314610098578063117d19a4146100b657806312429e58146100ea5780632b694cf914610106575b600080fd5b6100a06101c4565b6040516100ad91906115bd565b60405180910390f35b6100d060048036038101906100cb9190611786565b610252565b6040516100e1959493929190611881565b60405180910390f35b61010460048036038101906100ff91906118db565b610380565b005b610120600480360381019061011b9190611950565b6106ed565b005b61013c60048036038101906101379190611786565b6108da565b005b61015860048036038101906101539190611786565b610ba8565b005b610174600480360381019061016f9190611786565b610e75565b6040516101819190611ac0565b60405180910390f35b61019261106e565b60405161019f9190611ae2565b60405180910390f35b6101c260048036038101906101bd9190611afd565b611094565b005b600080546101d190611b9b565b80601f01602080910402602001604051908101604052809291908181526020018280546101fd90611b9b565b801561024a5780601f1061021f5761010080835404028352916020019161024a565b820191906000526020600020905b81548152906001019060200180831161022d57829003601f168201915b505050505081565b6002602052816000526040600020818051602081018201805184825260208301602085012081835280955050505050506000915091505080600001805461029890611b9b565b80601f01602080910402602001604051908101604052809291908181526020018280546102c490611b9b565b80156103115780601f106102e657610100808354040283529160200191610311565b820191906000526020600020905b8154815290600101906020018083116102f457829003601f168201915b5050505050908060010154908060020160009054906101000a900460ff16908060020160019054906101000a900473ffffffffffffffffffffffffffffffffffffffff16908060030160009054906101000a900473ffffffffffffffffffffffffffffffffffffffff16905085565b60026004811115610394576103936117fb565b5b600260003373ffffffffffffffffffffffffffffffffffffffff1673ffffffffffffffffffffffffffffffffffffffff168152602001908152602001600020826040516103e19190611c08565b908152602001604051809103902060020160009054906101000a900460ff166004811115610412576104116117fb565b5b14610452576040517f08c379a000000000000000000000000000000000000000000000000000000000815260040161044990611c6b565b60405180910390fd5b6004600260003373ffffffffffffffffffffffffffffffffffffffff1673ffffffffffffffffffffffffffffffffffffffff168152602001908152602001600020826040516104a19190611c08565b908152602001604051809103902060020160006101000a81548160ff021916908360048111156104d4576104d36117fb565b5b02179055507f290a344dc9f1026e563e182424c9e1948958e9bd6dd24f3d855255637a46b5a433600260003373ffffffffffffffffffffffffffffffffffffffff1673ffffffffffffffffffffffffffffffffffffffff168152602001908152602001600020836040516105489190611c08565b908152602001604051809103902060030160009054906101000a900473ffffffffffffffffffffffffffffffffffffffff16600260003373ffffffffffffffffffffffffffffffffffffffff1673ffffffffffffffffffffffffffffffffffffffff168152602001908152602001600020846040516105c79190611c08565b908152602001604051809103902060020160019054906101000a900473ffffffffffffffffffffffffffffffffffffffff168460405161060a9493929190611c8b565b60405180910390a1600260003373ffffffffffffffffffffffffffffffffffffffff1673ffffffffffffffffffffffffffffffffffffffff1681526020019081526020016000208160405161065f9190611c08565b90815260200160405180910390206000808201600061067e9190611463565b60018201600090556002820160006101000a81549060ff02191690556002820160016101000a81549073ffffffffffffffffffffffffffffffffffffffff02191690556003820160006101000a81549073ffffffffffffffffffffffffffffffffffffffff0219169055505050565b60006040518060a001604052808481526020018381526020016000600481111561071a576107196117fb565b5b81526020013373ffffffffffffffffffffffffffffffffffffffff1681526020018573ffffffffffffffffffffffffffffffffffffffff16815250905080600260008773ffffffffffffffffffffffffffffffffffffffff1673ffffffffffffffffffffffffffffffffffffffff168152602001908152602001600020846040516107a59190611c08565b908152602001604051809103902060008201518160000190816107c89190611e83565b506020820151816001015560408201518160020160006101000a81548160ff021916908360048111156107fe576107fd6117fb565b5b021790555060608201518160020160016101000a81548173ffffffffffffffffffffffffffffffffffffffff021916908373ffffffffffffffffffffffffffffffffffffffff16021790555060808201518160030160006101000a81548173ffffffffffffffffffffffffffffffffffffffff021916908373ffffffffffffffffffffffffffffffffffffffff1602179055509050507f5b5be8f33d07440b9c724e574d3cbb083c9b1232f624354615b847de9b344acb85853386866040516108cb959493929190611f55565b60405180910390a15050505050565b3373ffffffffffffffffffffffffffffffffffffffff16600260008473ffffffffffffffffffffffffffffffffffffffff1673ffffffffffffffffffffffffffffffffffffffff1681526020019081526020016000208260405161093e9190611c08565b908152602001604051809103902060020160019054906101000a900473ffffffffffffffffffffffffffffffffffffffff1673ffffffffffffffffffffffffffffffffffffffff16146109c6576040517f08c379a00000000000000000000000000000000000000000000000000000000081526004016109bd90612021565b60405180910390fd5b600060048111156109da576109d96117fb565b5b600260008473ffffffffffffffffffffffffffffffffffffffff1673ffffffffffffffffffffffffffffffffffffffff16815260200190815260200160002082604051610a279190611c08565b908152602001604051809103902060020160009054906101000a900460ff166004811115610a5857610a576117fb565b5b14610a6257600080fd5b6003600260008473ffffffffffffffffffffffffffffffffffffffff1673ffffffffffffffffffffffffffffffffffffffff16815260200190815260200160002082604051610ab19190611c08565b908152602001604051809103902060020160006101000a81548160ff02191690836004811115610ae457610ae36117fb565b5b02179055507faa033d96474c71ed4ea5a8218d73d9998a0159e03db047538bb2ebb39eeb1c9082600260008573ffffffffffffffffffffffffffffffffffffffff1673ffffffffffffffffffffffffffffffffffffffff16815260200190815260200160002083604051610b589190611c08565b908152602001604051809103902060030160009054906101000a900473ffffffffffffffffffffffffffffffffffffffff163384604051610b9c9493929190611c8b565b60405180910390a15050565b3373ffffffffffffffffffffffffffffffffffffffff16600260008473ffffffffffffffffffffffffffffffffffffffff1673ffffffffffffffffffffffffffffffffffffffff16815260200190815260200160002082604051610c0c9190611c08565b908152602001604051809103902060020160019054906101000a900473ffffffffffffffffffffffffffffffffffffffff1673ffffffffffffffffffffffffffffffffffffffff1614610c94576040517f08c379a0000000000000000000000000000000000000000000000000000000008152600401610c8b90612021565b60405180910390fd5b60016004811115610ca857610ca76117fb565b5b600260008473ffffffffffffffffffffffffffffffffffffffff1673ffffffffffffffffffffffffffffffffffffffff16815260200190815260200160002082604051610cf59190611c08565b908152602001604051809103902060020160009054906101000a900460ff166004811115610d2657610d256117fb565b5b14610d3057600080fd5b60028060008473ffffffffffffffffffffffffffffffffffffffff1673ffffffffffffffffffffffffffffffffffffffff16815260200190815260200160002082604051610d7e9190611c08565b908152602001604051809103902060020160006101000a81548160ff02191690836004811115610db157610db06117fb565b5b02179055507fbcd452b68afbd7df9215869432f10e450cf787e090ccfa9dc9a7665c29dc714382600260008573ffffffffffffffffffffffffffffffffffffffff1673ffffffffffffffffffffffffffffffffffffffff16815260200190815260200160002083604051610e259190611c08565b908152602001604051809103902060030160009054906101000a900473ffffffffffffffffffffffffffffffffffffffff163384604051610e699493929190611c8b565b60405180910390a15050565b610e7d6114a3565b600260008473ffffffffffffffffffffffffffffffffffffffff1673ffffffffffffffffffffffffffffffffffffffff16815260200190815260200160002082604051610eca9190611c08565b90815260200160405180910390206040518060a0016040529081600082018054610ef390611b9b565b80601f0160208091040260200160405190810160405280929190818152602001828054610f1f90611b9b565b8015610f6c5780601f10610f4157610100808354040283529160200191610f6c565b820191906000526020600020905b815481529060010190602001808311610f4f57829003601f168201915b50505050508152602001600182015481526020016002820160009054906101000a900460ff166004811115610fa457610fa36117fb565b5b6004811115610fb657610fb56117fb565b5b81526020016002820160019054906101000a900473ffffffffffffffffffffffffffffffffffffffff1673ffffffffffffffffffffffffffffffffffffffff1673ffffffffffffffffffffffffffffffffffffffff1681526020016003820160009054906101000a900473ffffffffffffffffffffffffffffffffffffffff1673ffffffffffffffffffffffffffffffffffffffff1673ffffffffffffffffffffffffffffffffffffffff1681525050905092915050565b600160009054906101000a900473ffffffffffffffffffffffffffffffffffffffff1681565b600060048111156110a8576110a76117fb565b5b600260008573ffffffffffffffffffffffffffffffffffffffff1673ffffffffffffffffffffffffffffffffffffffff168152602001908152602001600020836040516110f59190611c08565b908152602001604051809103902060020160009054906101000a900460ff166004811115611126576111256117fb565b5b1461113057600080fd5b80600260008573ffffffffffffffffffffffffffffffffffffffff1673ffffffffffffffffffffffffffffffffffffffff1681526020019081526020016000208360405161117e9190611c08565b908152602001604051809103902060010154146111d0576040517f08c379a00000000000000000000000000000000000000000000000000000000081526004016111c7906120b3565b60405180910390fd5b3373ffffffffffffffffffffffffffffffffffffffff16600260008573ffffffffffffffffffffffffffffffffffffffff1673ffffffffffffffffffffffffffffffffffffffff168152602001908152602001600020836040516112349190611c08565b908152602001604051809103902060020160019054906101000a900473ffffffffffffffffffffffffffffffffffffffff1673ffffffffffffffffffffffffffffffffffffffff16146112bc576040517f08c379a00000000000000000000000000000000000000000000000000000000081526004016112b39061211f565b60405180910390fd5b6001600260008573ffffffffffffffffffffffffffffffffffffffff1673ffffffffffffffffffffffffffffffffffffffff1681526020019081526020016000208360405161130b9190611c08565b908152602001604051809103902060020160006101000a81548160ff0219169083600481111561133e5761133d6117fb565b5b02179055507f96fbac8c0ec1f0b8720f1985e90b1e4e3aeb3d7c8652f46bb9153ede76e1fa9583600260008673ffffffffffffffffffffffffffffffffffffffff1673ffffffffffffffffffffffffffffffffffffffff168152602001908152602001600020846040516113b29190611c08565b908152602001604051809103902060030160009054906101000a900473ffffffffffffffffffffffffffffffffffffffff163385600260008973ffffffffffffffffffffffffffffffffffffffff1673ffffffffffffffffffffffffffffffffffffffff168152602001908152602001600020876040516114339190611c08565b908152602001604051809103902060010154604051611456959493929190611f55565b60405180910390a1505050565b50805461146f90611b9b565b6000825580601f1061148157506114a0565b601f01602090049060005260206000209081019061149f9190611510565b5b50565b6040518060a001604052806060815260200160008152602001600060048111156114d0576114cf6117fb565b5b8152602001600073ffffffffffffffffffffffffffffffffffffffff168152602001600073ffffffffffffffffffffffffffffffffffffffff1681525090565b5b80821115611529576000816000905550600101611511565b5090565b600081519050919050565b600082825260208201905092915050565b60005b8381101561156757808201518184015260208101905061154c565b60008484015250505050565b6000601f19601f8301169050919050565b600061158f8261152d565b6115998185611538565b93506115a9818560208601611549565b6115b281611573565b840191505092915050565b600060208201905081810360008301526115d78184611584565b905092915050565b6000604051905090565b600080fd5b600080fd5b600073ffffffffffffffffffffffffffffffffffffffff82169050919050565b600061161e826115f3565b9050919050565b61162e81611613565b811461163957600080fd5b50565b60008135905061164b81611625565b92915050565b600080fd5b600080fd5b7f4e487b7100000000000000000000000000000000000000000000000000000000600052604160045260246000fd5b61169382611573565b810181811067ffffffffffffffff821117156116b2576116b161165b565b5b80604052505050565b60006116c56115df565b90506116d1828261168a565b919050565b600067ffffffffffffffff8211156116f1576116f061165b565b5b6116fa82611573565b9050602081019050919050565b82818337600083830152505050565b6000611729611724846116d6565b6116bb565b90508281526020810184848401111561174557611744611656565b5b611750848285611707565b509392505050565b600082601f83011261176d5761176c611651565b5b813561177d848260208601611716565b91505092915050565b6000806040838503121561179d5761179c6115e9565b5b60006117ab8582860161163c565b925050602083013567ffffffffffffffff8111156117cc576117cb6115ee565b5b6117d885828601611758565b9150509250929050565b6000819050919050565b6117f5816117e2565b82525050565b7f4e487b7100000000000000000000000000000000000000000000000000000000600052602160045260246000fd5b6005811061183b5761183a6117fb565b5b50565b600081905061184c8261182a565b919050565b600061185c8261183e565b9050919050565b61186c81611851565b82525050565b61187b81611613565b82525050565b600060a082019050818103600083015261189b8188611584565b90506118aa60208301876117ec565b6118b76040830186611863565b6118c46060830185611872565b6118d16080830184611872565b9695505050505050565b6000602082840312156118f1576118f06115e9565b5b600082013567ffffffffffffffff81111561190f5761190e6115ee565b5b61191b84828501611758565b91505092915050565b61192d816117e2565b811461193857600080fd5b50565b60008135905061194a81611924565b92915050565b6000806000806080858703121561196a576119696115e9565b5b60006119788782880161163c565b94505060206119898782880161163c565b935050604085013567ffffffffffffffff8111156119aa576119a96115ee565b5b6119b687828801611758565b92505060606119c78782880161193b565b91505092959194509250565b600082825260208201905092915050565b60006119ef8261152d565b6119f981856119d3565b9350611a09818560208601611549565b611a1281611573565b840191505092915050565b611a26816117e2565b82525050565b611a3581611851565b82525050565b611a4481611613565b82525050565b600060a0830160008301518482036000860152611a6782826119e4565b9150506020830151611a7c6020860182611a1d565b506040830151611a8f6040860182611a2c565b506060830151611aa26060860182611a3b565b506080830151611ab56080860182611a3b565b508091505092915050565b60006020820190508181036000830152611ada8184611a4a565b905092915050565b6000602082019050611af76000830184611872565b92915050565b600080600060608486031215611b1657611b156115e9565b5b6000611b248682870161163c565b935050602084013567ffffffffffffffff811115611b4557611b446115ee565b5b611b5186828701611758565b9250506040611b628682870161193b565b9150509250925092565b7f4e487b7100000000000000000000000000000000000000000000000000000000600052602260045260246000fd5b60006002820490506001821680611bb357607f821691505b602082108103611bc657611bc5611b6c565b5b50919050565b600081905092915050565b6000611be28261152d565b611bec8185611bcc565b9350611bfc818560208601611549565b80840191505092915050565b6000611c148284611bd7565b915081905092915050565b7f50726f64756374206d7573742062652072656a65637465640000000000000000600082015250565b6000611c55601883611538565b9150611c6082611c1f565b602082019050919050565b60006020820190508181036000830152611c8481611c48565b9050919050565b6000608082019050611ca06000830187611872565b611cad6020830186611872565b611cba6040830185611872565b8181036060830152611ccc8184611584565b905095945050505050565b60008190508160005260206000209050919050565b60006020601f8301049050919050565b600082821b905092915050565b600060088302611d397fffffffffffffffffffffffffffffffffffffffffffffffffffffffffffffffff82611cfc565b611d438683611cfc565b95508019841693508086168417925050509392505050565b6000819050919050565b6000611d80611d7b611d76846117e2565b611d5b565b6117e2565b9050919050565b6000819050919050565b611d9a83611d65565b611dae611da682611d87565b848454611d09565b825550505050565b600090565b611dc3611db6565b611dce818484611d91565b505050565b5b81811015611df257611de7600082611dbb565b600181019050611dd4565b5050565b601f821115611e3757611e0881611cd7565b611e1184611cec565b81016020851015611e20578190505b611e34611e2c85611cec565b830182611dd3565b50505b505050565b600082821c905092915050565b6000611e5a60001984600802611e3c565b1980831691505092915050565b6000611e738383611e49565b9150826002028217905092915050565b611e8c8261152d565b67ffffffffffffffff811115611ea557611ea461165b565b5b611eaf8254611b9b565b611eba828285611df6565b600060209050601f831160018114611eed5760008415611edb578287015190505b611ee58582611e67565b865550611f4d565b601f198416611efb86611cd7565b60005b82811015611f2357848901518255600182019150602085019450602081019050611efe565b86831015611f405784890151611f3c601f891682611e49565b8355505b6001600288020188555050505b505050505050565b600060a082019050611f6a6000830188611872565b611f776020830187611872565b611f846040830186611872565b8181036060830152611f968185611584565b9050611fa560808301846117ec565b9695505050505050565b7f4f6e6c79207468652062757965722063616e2063616c6c20746869732066756e60008201527f6374696f6e000000000000000000000000000000000000000000000000000000602082015250565b600061200b602583611538565b915061201682611faf565b604082019050919050565b6000602082019050818103600083015261203a81611ffe565b9050919050565b7f4465706f73697420616d6f756e74206d75737420626520657175616c20746f2060008201527f70726f6475637420616d6f756e74000000000000000000000000000000000000602082015250565b600061209d602e83611538565b91506120a882612041565b604082019050919050565b600060208201905081810360008301526120cc81612090565b9050919050565b7f4f6e6c79207468652062757965722063616e206465706f7369742066756e6473600082015250565b6000612109602083611538565b9150612114826120d3565b602082019050919050565b60006020820190508181036000830152612138816120fc565b905091905056fea2646970667358221220c27cb175c217e40076c93137c64fe05e2a18e09396dfd65fd24d8af146f39fb064736f6c63430008180033",
  "linkReferences": {},
  "deployedLinkReferences": {}
}