{
  "_format": "hh-sol-artifact-1",
  "contractName": "Escrow",
  "sourceName": "contracts/Escrow.sol",
  "abi": [
    {
      "inputs": [],
      "stateMutability": "nonpayable",
      "type": "constructor"
    },
    {
      "anonymous": false,
      "inputs": [
        {
          "indexed": false,
          "internalType": "address",
          "name": "sellerAddress",
          "type": "address"
        },
        {
          "indexed": false,
          "internalType": "address",
          "name": "arbitorAddress",
          "type": "address"
        },
        {
          "indexed": false,
          "internalType": "address",
          "name": "buyerAddress",
          "type": "address"
        },
        {
          "indexed": false,
          "internalType": "string",
          "name": "productId",
          "type": "string"
        }
      ],
      "name": "ApprovedByBuyer",
      "type": "event"
    },
    {
      "anonymous": false,
      "inputs": [
        {
          "indexed": false,
          "internalType": "address",
          "name": "sellerAddress",
          "type": "address"
        },
        {
          "indexed": false,
          "internalType": "address",
          "name": "arbitorAddress",
          "type": "address"
        },
        {
          "indexed": false,
          "internalType": "address",
          "name": "buyerAddress",
          "type": "address"
        },
        {
          "indexed": false,
          "internalType": "string",
          "name": "productId",
          "type": "string"
        },
        {
          "indexed": false,
          "internalType": "uint256",
          "name": "amount",
          "type": "uint256"
        }
      ],
      "name": "PaymentDeposited",
      "type": "event"
    },
    {
      "anonymous": false,
      "inputs": [
        {
          "indexed": false,
          "internalType": "address",
          "name": "sellerAddress",
          "type": "address"
        },
        {
          "indexed": false,
          "internalType": "address",
          "name": "arbitorAddress",
          "type": "address"
        },
        {
          "indexed": false,
          "internalType": "address",
          "name": "buyerAddress",
          "type": "address"
        },
        {
          "indexed": false,
          "internalType": "string",
          "name": "productId",
          "type": "string"
        },
        {
          "indexed": false,
          "internalType": "uint256",
          "name": "amount",
          "type": "uint256"
        }
      ],
      "name": "ProductAdded",
      "type": "event"
    },
    {
      "anonymous": false,
      "inputs": [
        {
          "indexed": false,
          "internalType": "address",
          "name": "sellerAddress",
          "type": "address"
        },
        {
          "indexed": false,
          "internalType": "address",
          "name": "arbitorAddress",
          "type": "address"
        },
        {
          "indexed": false,
          "internalType": "address",
          "name": "buyerAddress",
          "type": "address"
        },
        {
          "indexed": false,
          "internalType": "string",
          "name": "productId",
          "type": "string"
        }
      ],
      "name": "ProductReturned",
      "type": "event"
    },
    {
      "anonymous": false,
      "inputs": [
        {
          "indexed": false,
          "internalType": "address",
          "name": "sellerAddress",
          "type": "address"
        },
        {
          "indexed": false,
          "internalType": "address",
          "name": "arbitorAddress",
          "type": "address"
        },
        {
          "indexed": false,
          "internalType": "address",
          "name": "buyerAddress",
          "type": "address"
        },
        {
          "indexed": false,
          "internalType": "string",
          "name": "productId",
          "type": "string"
        }
      ],
      "name": "RejectedByBuyer",
      "type": "event"
    },
    {
      "inputs": [
        {
          "internalType": "address",
          "name": "sellerAddress",
          "type": "address"
        },
        {
          "internalType": "address",
          "name": "arbitorAddress",
          "type": "address"
        },
        {
          "internalType": "string",
          "name": "productId",
          "type": "string"
        },
        {
          "internalType": "uint256",
          "name": "amount",
          "type": "uint256"
        }
      ],
      "name": "addProduct",
      "outputs": [],
      "stateMutability": "nonpayable",
      "type": "function"
    },
    {
      "inputs": [
        {
          "internalType": "address",
          "name": "sellerAddress",
          "type": "address"
        },
        {
          "internalType": "string",
          "name": "productId",
          "type": "string"
        }
      ],
      "name": "approveByBuyer",
      "outputs": [],
      "stateMutability": "nonpayable",
      "type": "function"
    },
    {
      "inputs": [
        {
          "internalType": "address",
          "name": "sellerAddress",
          "type": "address"
        },
        {
          "internalType": "string",
          "name": "productId",
          "type": "string"
        },
        {
          "internalType": "uint256",
          "name": "amount",
          "type": "uint256"
        }
      ],
      "name": "deposit",
      "outputs": [],
      "stateMutability": "nonpayable",
      "type": "function"
    },
    {
      "inputs": [
        {
          "internalType": "address",
          "name": "",
          "type": "address"
        },
        {
          "internalType": "string",
          "name": "",
          "type": "string"
        }
      ],
      "name": "escrowProducts",
      "outputs": [
        {
          "internalType": "string",
          "name": "productId",
          "type": "string"
        },
        {
          "internalType": "uint256",
          "name": "amount",
          "type": "uint256"
        },
        {
          "internalType": "enum Escrow.Status",
          "name": "status",
          "type": "uint8"
        },
        {
          "internalType": "address",
          "name": "buyerAddress",
          "type": "address"
        },
        {
          "internalType": "address",
          "name": "arbitorAddress",
          "type": "address"
        }
      ],
      "stateMutability": "view",
      "type": "function"
    },
    {
      "inputs": [],
      "name": "name",
      "outputs": [
        {
          "internalType": "string",
          "name": "",
          "type": "string"
        }
      ],
      "stateMutability": "view",
      "type": "function"
    },
    {
      "inputs": [],
      "name": "owner",
      "outputs": [
        {
          "internalType": "address",
          "name": "",
          "type": "address"
        }
      ],
      "stateMutability": "view",
      "type": "function"
    },
    {
      "inputs": [
        {
          "internalType": "string",
          "name": "productId",
          "type": "string"
        }
      ],
      "name": "productReturned",
      "outputs": [],
      "stateMutability": "nonpayable",
      "type": "function"
    },
    {
      "inputs": [
        {
          "internalType": "address",
          "name": "sellerAddress",
          "type": "address"
        },
        {
          "internalType": "string",
          "name": "productId",
          "type": "string"
        }
      ],
      "name": "rejectedByBuyer",
      "outputs": [],
      "stateMutability": "nonpayable",
      "type": "function"
    }
  ],
  "bytecode": "0x60806040526040518060400160405280600881526020017f3336304465616c73000000000000000000000000000000000000000000000000815250600090816200004a91906200031a565b503480156200005857600080fd5b5033600160006101000a81548173ffffffffffffffffffffffffffffffffffffffff021916908373ffffffffffffffffffffffffffffffffffffffff16021790555062000401565b600081519050919050565b7f4e487b7100000000000000000000000000000000000000000000000000000000600052604160045260246000fd5b7f4e487b7100000000000000000000000000000000000000000000000000000000600052602260045260246000fd5b600060028204905060018216806200012257607f821691505b602082108103620001385762000137620000da565b5b50919050565b60008190508160005260206000209050919050565b60006020601f8301049050919050565b600082821b905092915050565b600060088302620001a27fffffffffffffffffffffffffffffffffffffffffffffffffffffffffffffffff8262000163565b620001ae868362000163565b95508019841693508086168417925050509392505050565b6000819050919050565b6000819050919050565b6000620001fb620001f5620001ef84620001c6565b620001d0565b620001c6565b9050919050565b6000819050919050565b6200021783620001da565b6200022f620002268262000202565b84845462000170565b825550505050565b600090565b6200024662000237565b620002538184846200020c565b505050565b5b818110156200027b576200026f6000826200023c565b60018101905062000259565b5050565b601f821115620002ca5762000294816200013e565b6200029f8462000153565b81016020851015620002af578190505b620002c7620002be8562000153565b83018262000258565b50505b505050565b600082821c905092915050565b6000620002ef60001984600802620002cf565b1980831691505092915050565b60006200030a8383620002dc565b9150826002028217905092915050565b6200032582620000a0565b67ffffffffffffffff811115620003415762000340620000ab565b5b6200034d825462000109565b6200035a8282856200027f565b600060209050601f8311600181146200039257600084156200037d578287015190505b620003898582620002fc565b865550620003f9565b601f198416620003a2866200013e565b60005b82811015620003cc57848901518255600182019150602085019450602081019050620003a5565b86831015620003ec5784890151620003e8601f891682620002dc565b8355505b6001600288020188555050505b505050505050565b611dc580620004116000396000f3fe608060405234801561001057600080fd5b50600436106100885760003560e01c806339dc92181161005b57806339dc9218146101175780636808587a146101335780638da5cb5b1461014f578063f3db9fe51461016d57610088565b806306fdde031461008d578063117d19a4146100ab57806312429e58146100df5780632b694cf9146100fb575b600080fd5b610095610189565b6040516100a2919061131c565b60405180910390f35b6100c560048036038101906100c091906114e5565b610217565b6040516100d69594939291906115e0565b60405180910390f35b6100f960048036038101906100f4919061163a565b610345565b005b610115600480360381019061011091906116af565b6106b2565b005b610131600480360381019061012c91906114e5565b61089f565b005b61014d600480360381019061014891906114e5565b610b6d565b005b610157610e3a565b6040516101649190611732565b60405180910390f35b6101876004803603810190610182919061174d565b610e60565b005b60008054610196906117eb565b80601f01602080910402602001604051908101604052809291908181526020018280546101c2906117eb565b801561020f5780601f106101e45761010080835404028352916020019161020f565b820191906000526020600020905b8154815290600101906020018083116101f257829003601f168201915b505050505081565b6002602052816000526040600020818051602081018201805184825260208301602085012081835280955050505050506000915091505080600001805461025d906117eb565b80601f0160208091040260200160405190810160405280929190818152602001828054610289906117eb565b80156102d65780601f106102ab576101008083540402835291602001916102d6565b820191906000526020600020905b8154815290600101906020018083116102b957829003601f168201915b5050505050908060010154908060020160009054906101000a900460ff16908060020160019054906101000a900473ffffffffffffffffffffffffffffffffffffffff16908060030160009054906101000a900473ffffffffffffffffffffffffffffffffffffffff16905085565b600260048111156103595761035861155a565b5b600260003373ffffffffffffffffffffffffffffffffffffffff1673ffffffffffffffffffffffffffffffffffffffff168152602001908152602001600020826040516103a69190611858565b908152602001604051809103902060020160009054906101000a900460ff1660048111156103d7576103d661155a565b5b14610417576040517f08c379a000000000000000000000000000000000000000000000000000000000815260040161040e906118bb565b60405180910390fd5b6004600260003373ffffffffffffffffffffffffffffffffffffffff1673ffffffffffffffffffffffffffffffffffffffff168152602001908152602001600020826040516104669190611858565b908152602001604051809103902060020160006101000a81548160ff021916908360048111156104995761049861155a565b5b02179055507f290a344dc9f1026e563e182424c9e1948958e9bd6dd24f3d855255637a46b5a433600260003373ffffffffffffffffffffffffffffffffffffffff1673ffffffffffffffffffffffffffffffffffffffff1681526020019081526020016000208360405161050d9190611858565b908152602001604051809103902060030160009054906101000a900473ffffffffffffffffffffffffffffffffffffffff16600260003373ffffffffffffffffffffffffffffffffffffffff1673ffffffffffffffffffffffffffffffffffffffff1681526020019081526020016000208460405161058c9190611858565b908152602001604051809103902060020160019054906101000a900473ffffffffffffffffffffffffffffffffffffffff16846040516105cf94939291906118db565b60405180910390a1600260003373ffffffffffffffffffffffffffffffffffffffff1673ffffffffffffffffffffffffffffffffffffffff168152602001908152602001600020816040516106249190611858565b908152602001604051809103902060008082016000610643919061122f565b60018201600090556002820160006101000a81549060ff02191690556002820160016101000a81549073ffffffffffffffffffffffffffffffffffffffff02191690556003820160006101000a81549073ffffffffffffffffffffffffffffffffffffffff0219169055505050565b60006040518060a00160405280848152602001838152602001600060048111156106df576106de61155a565b5b81526020013373ffffffffffffffffffffffffffffffffffffffff1681526020018573ffffffffffffffffffffffffffffffffffffffff16815250905080600260008773ffffffffffffffffffffffffffffffffffffffff1673ffffffffffffffffffffffffffffffffffffffff1681526020019081526020016000208460405161076a9190611858565b9081526020016040518091039020600082015181600001908161078d9190611ad3565b506020820151816001015560408201518160020160006101000a81548160ff021916908360048111156107c3576107c261155a565b5b021790555060608201518160020160016101000a81548173ffffffffffffffffffffffffffffffffffffffff021916908373ffffffffffffffffffffffffffffffffffffffff16021790555060808201518160030160006101000a81548173ffffffffffffffffffffffffffffffffffffffff021916908373ffffffffffffffffffffffffffffffffffffffff1602179055509050507f5b5be8f33d07440b9c724e574d3cbb083c9b1232f624354615b847de9b344acb8585338686604051610890959493929190611ba5565b60405180910390a15050505050565b3373ffffffffffffffffffffffffffffffffffffffff16600260008473ffffffffffffffffffffffffffffffffffffffff1673ffffffffffffffffffffffffffffffffffffffff168152602001908152602001600020826040516109039190611858565b908152602001604051809103902060020160019054906101000a900473ffffffffffffffffffffffffffffffffffffffff1673ffffffffffffffffffffffffffffffffffffffff161461098b576040517f08c379a000000000000000000000000000000000000000000000000000000000815260040161098290611c71565b60405180910390fd5b6000600481111561099f5761099e61155a565b5b600260008473ffffffffffffffffffffffffffffffffffffffff1673ffffffffffffffffffffffffffffffffffffffff168152602001908152602001600020826040516109ec9190611858565b908152602001604051809103902060020160009054906101000a900460ff166004811115610a1d57610a1c61155a565b5b14610a2757600080fd5b6003600260008473ffffffffffffffffffffffffffffffffffffffff1673ffffffffffffffffffffffffffffffffffffffff16815260200190815260200160002082604051610a769190611858565b908152602001604051809103902060020160006101000a81548160ff02191690836004811115610aa957610aa861155a565b5b02179055507faa033d96474c71ed4ea5a8218d73d9998a0159e03db047538bb2ebb39eeb1c9082600260008573ffffffffffffffffffffffffffffffffffffffff1673ffffffffffffffffffffffffffffffffffffffff16815260200190815260200160002083604051610b1d9190611858565b908152602001604051809103902060030160009054906101000a900473ffffffffffffffffffffffffffffffffffffffff163384604051610b6194939291906118db565b60405180910390a15050565b3373ffffffffffffffffffffffffffffffffffffffff16600260008473ffffffffffffffffffffffffffffffffffffffff1673ffffffffffffffffffffffffffffffffffffffff16815260200190815260200160002082604051610bd19190611858565b908152602001604051809103902060020160019054906101000a900473ffffffffffffffffffffffffffffffffffffffff1673ffffffffffffffffffffffffffffffffffffffff1614610c59576040517f08c379a0000000000000000000000000000000000000000000000000000000008152600401610c5090611c71565b60405180910390fd5b60016004811115610c6d57610c6c61155a565b5b600260008473ffffffffffffffffffffffffffffffffffffffff1673ffffffffffffffffffffffffffffffffffffffff16815260200190815260200160002082604051610cba9190611858565b908152602001604051809103902060020160009054906101000a900460ff166004811115610ceb57610cea61155a565b5b14610cf557600080fd5b60028060008473ffffffffffffffffffffffffffffffffffffffff1673ffffffffffffffffffffffffffffffffffffffff16815260200190815260200160002082604051610d439190611858565b908152602001604051809103902060020160006101000a81548160ff02191690836004811115610d7657610d7561155a565b5b02179055507fbcd452b68afbd7df9215869432f10e450cf787e090ccfa9dc9a7665c29dc714382600260008573ffffffffffffffffffffffffffffffffffffffff1673ffffffffffffffffffffffffffffffffffffffff16815260200190815260200160002083604051610dea9190611858565b908152602001604051809103902060030160009054906101000a900473ffffffffffffffffffffffffffffffffffffffff163384604051610e2e94939291906118db565b60405180910390a15050565b600160009054906101000a900473ffffffffffffffffffffffffffffffffffffffff1681565b60006004811115610e7457610e7361155a565b5b600260008573ffffffffffffffffffffffffffffffffffffffff1673ffffffffffffffffffffffffffffffffffffffff16815260200190815260200160002083604051610ec19190611858565b908152602001604051809103902060020160009054906101000a900460ff166004811115610ef257610ef161155a565b5b14610efc57600080fd5b80600260008573ffffffffffffffffffffffffffffffffffffffff1673ffffffffffffffffffffffffffffffffffffffff16815260200190815260200160002083604051610f4a9190611858565b90815260200160405180910390206001015414610f9c576040517f08c379a0000000000000000000000000000000000000000000000000000000008152600401610f9390611d03565b60405180910390fd5b3373ffffffffffffffffffffffffffffffffffffffff16600260008573ffffffffffffffffffffffffffffffffffffffff1673ffffffffffffffffffffffffffffffffffffffff168152602001908152602001600020836040516110009190611858565b908152602001604051809103902060020160019054906101000a900473ffffffffffffffffffffffffffffffffffffffff1673ffffffffffffffffffffffffffffffffffffffff1614611088576040517f08c379a000000000000000000000000000000000000000000000000000000000815260040161107f90611d6f565b60405180910390fd5b6001600260008573ffffffffffffffffffffffffffffffffffffffff1673ffffffffffffffffffffffffffffffffffffffff168152602001908152602001600020836040516110d79190611858565b908152602001604051809103902060020160006101000a81548160ff0219169083600481111561110a5761110961155a565b5b02179055507f96fbac8c0ec1f0b8720f1985e90b1e4e3aeb3d7c8652f46bb9153ede76e1fa9583600260008673ffffffffffffffffffffffffffffffffffffffff1673ffffffffffffffffffffffffffffffffffffffff1681526020019081526020016000208460405161117e9190611858565b908152602001604051809103902060030160009054906101000a900473ffffffffffffffffffffffffffffffffffffffff163385600260008973ffffffffffffffffffffffffffffffffffffffff1673ffffffffffffffffffffffffffffffffffffffff168152602001908152602001600020876040516111ff9190611858565b908152602001604051809103902060010154604051611222959493929190611ba5565b60405180910390a1505050565b50805461123b906117eb565b6000825580601f1061124d575061126c565b601f01602090049060005260206000209081019061126b919061126f565b5b50565b5b80821115611288576000816000905550600101611270565b5090565b600081519050919050565b600082825260208201905092915050565b60005b838110156112c65780820151818401526020810190506112ab565b60008484015250505050565b6000601f19601f8301169050919050565b60006112ee8261128c565b6112f88185611297565b93506113088185602086016112a8565b611311816112d2565b840191505092915050565b6000602082019050818103600083015261133681846112e3565b905092915050565b6000604051905090565b600080fd5b600080fd5b600073ffffffffffffffffffffffffffffffffffffffff82169050919050565b600061137d82611352565b9050919050565b61138d81611372565b811461139857600080fd5b50565b6000813590506113aa81611384565b92915050565b600080fd5b600080fd5b7f4e487b7100000000000000000000000000000000000000000000000000000000600052604160045260246000fd5b6113f2826112d2565b810181811067ffffffffffffffff82111715611411576114106113ba565b5b80604052505050565b600061142461133e565b905061143082826113e9565b919050565b600067ffffffffffffffff8211156114505761144f6113ba565b5b611459826112d2565b9050602081019050919050565b82818337600083830152505050565b600061148861148384611435565b61141a565b9050828152602081018484840111156114a4576114a36113b5565b5b6114af848285611466565b509392505050565b600082601f8301126114cc576114cb6113b0565b5b81356114dc848260208601611475565b91505092915050565b600080604083850312156114fc576114fb611348565b5b600061150a8582860161139b565b925050602083013567ffffffffffffffff81111561152b5761152a61134d565b5b611537858286016114b7565b9150509250929050565b6000819050919050565b61155481611541565b82525050565b7f4e487b7100000000000000000000000000000000000000000000000000000000600052602160045260246000fd5b6005811061159a5761159961155a565b5b50565b60008190506115ab82611589565b919050565b60006115bb8261159d565b9050919050565b6115cb816115b0565b82525050565b6115da81611372565b82525050565b600060a08201905081810360008301526115fa81886112e3565b9050611609602083018761154b565b61161660408301866115c2565b61162360608301856115d1565b61163060808301846115d1565b9695505050505050565b6000602082840312156116505761164f611348565b5b600082013567ffffffffffffffff81111561166e5761166d61134d565b5b61167a848285016114b7565b91505092915050565b61168c81611541565b811461169757600080fd5b50565b6000813590506116a981611683565b92915050565b600080600080608085870312156116c9576116c8611348565b5b60006116d78782880161139b565b94505060206116e88782880161139b565b935050604085013567ffffffffffffffff8111156117095761170861134d565b5b611715878288016114b7565b92505060606117268782880161169a565b91505092959194509250565b600060208201905061174760008301846115d1565b92915050565b60008060006060848603121561176657611765611348565b5b60006117748682870161139b565b935050602084013567ffffffffffffffff8111156117955761179461134d565b5b6117a1868287016114b7565b92505060406117b28682870161169a565b9150509250925092565b7f4e487b7100000000000000000000000000000000000000000000000000000000600052602260045260246000fd5b6000600282049050600182168061180357607f821691505b602082108103611816576118156117bc565b5b50919050565b600081905092915050565b60006118328261128c565b61183c818561181c565b935061184c8185602086016112a8565b80840191505092915050565b60006118648284611827565b915081905092915050565b7f50726f64756374206d7573742062652072656a65637465640000000000000000600082015250565b60006118a5601883611297565b91506118b08261186f565b602082019050919050565b600060208201905081810360008301526118d481611898565b9050919050565b60006080820190506118f060008301876115d1565b6118fd60208301866115d1565b61190a60408301856115d1565b818103606083015261191c81846112e3565b905095945050505050565b60008190508160005260206000209050919050565b60006020601f8301049050919050565b600082821b905092915050565b6000600883026119897fffffffffffffffffffffffffffffffffffffffffffffffffffffffffffffffff8261194c565b611993868361194c565b95508019841693508086168417925050509392505050565b6000819050919050565b60006119d06119cb6119c684611541565b6119ab565b611541565b9050919050565b6000819050919050565b6119ea836119b5565b6119fe6119f6826119d7565b848454611959565b825550505050565b600090565b611a13611a06565b611a1e8184846119e1565b505050565b5b81811015611a4257611a37600082611a0b565b600181019050611a24565b5050565b601f821115611a8757611a5881611927565b611a618461193c565b81016020851015611a70578190505b611a84611a7c8561193c565b830182611a23565b50505b505050565b600082821c905092915050565b6000611aaa60001984600802611a8c565b1980831691505092915050565b6000611ac38383611a99565b9150826002028217905092915050565b611adc8261128c565b67ffffffffffffffff811115611af557611af46113ba565b5b611aff82546117eb565b611b0a828285611a46565b600060209050601f831160018114611b3d5760008415611b2b578287015190505b611b358582611ab7565b865550611b9d565b601f198416611b4b86611927565b60005b82811015611b7357848901518255600182019150602085019450602081019050611b4e565b86831015611b905784890151611b8c601f891682611a99565b8355505b6001600288020188555050505b505050505050565b600060a082019050611bba60008301886115d1565b611bc760208301876115d1565b611bd460408301866115d1565b8181036060830152611be681856112e3565b9050611bf5608083018461154b565b9695505050505050565b7f4f6e6c79207468652062757965722063616e2063616c6c20746869732066756e60008201527f6374696f6e000000000000000000000000000000000000000000000000000000602082015250565b6000611c5b602583611297565b9150611c6682611bff565b604082019050919050565b60006020820190508181036000830152611c8a81611c4e565b9050919050565b7f4465706f73697420616d6f756e74206d75737420626520657175616c20746f2060008201527f70726f6475637420616d6f756e74000000000000000000000000000000000000602082015250565b6000611ced602e83611297565b9150611cf882611c91565b604082019050919050565b60006020820190508181036000830152611d1c81611ce0565b9050919050565b7f4f6e6c79207468652062757965722063616e206465706f7369742066756e6473600082015250565b6000611d59602083611297565b9150611d6482611d23565b602082019050919050565b60006020820190508181036000830152611d8881611d4c565b905091905056fea264697066735822122001175abae11538d0568eaccde7cb2375cbd68c02e086c6093edbaa379190981664736f6c63430008180033",
  "linkReferences": {},
  "deployedLinkReferences": {}
}